:020000040800F2
:10000000500D002001010008173C0008FF2E0008D9
:10001000153C00088112000861490008000000003A
:10002000000000000000000000000000FB4200088B
:100030000113000800000000F942000821440008F4
:100040001B0100081B0100081B0100081B01000820
:100050001B0100081B0100081B0100081B01000810
:100060001B0100081B0100081B0100081B01000800
:100070001B0100081B0100081B0100081B010008F0
:100080001B0100081B0100081B0100081B010008E0
:100090001B0100081B0100081B0100081B010008D0
:1000A0001B0100081B0100081B0100081B010008C0
:1000B000854400081B0100081B0100081B01000803
:1000C0001B0100081B0100081B0100081B010008A0
:1000D0001B010008554900081B0100081B0100080E
:1000E0001B0100081B0100081B010008DFF80CD0F1
:1000F00000F004FF00480047C1530008500D0020E5
:100100000648804706480047FEE7FEE7FEE7FEE7B1
:10011000FEE7FEE7FEE7FEE7FEE7FEE783440008B2
:10012000ED000008202A04DB203A21FA02F0002129
:10013000704721FA02F3D040C2F1200291400843F7
:100140001946704740EA01039B0703D009E008C93C
:10015000121F08C0042AFAD203E011F8013B00F88C
:10016000013B521EF9D27047D2B201E000F8012BD8
:10017000491EFBD270470022F6E710B513460A4627
:1001800004461946FFF7F0FF204610BD421C10F848
:10019000011B0029FBD1801A704710B5002200E036
:1001A000521C835C8C5CA34201D1002BF8D1D8B2E5
:1001B000E1B2401A10BD034611F8012B00F8012BE3
:1001C000002AF9D1184670470FB400B58DB010A9B8
:1001D00009900B9000914FF0FF300A9000200C9096
:1001E00005480690054807906A4609A80F9900F04F
:1001F00013FD0DB05DF814FB350C0008530C00081E
:100200002DE9FF5F1D464FF0FF3BD5E901469146C2
:100210005F464FF00008A9697F1C01988847296A4A
:10022000824688470028F6D1BAF1FF3F0CD024F46B
:10023000C064002E19DD600614D5BAF12B0F09D069
:10024000BAF12D0F0ED103E0584604B0BDE8F09F7F
:1002500044F48064A9697F1C01988847761E824611
:10026000002E02DDBAF1300F03D0B9F1000F26D015
:1002700032E0A969761E44F400747F1C0198884717
:100280008246002E05DDBAF1780F06D0BAF1580F7C
:1002900003D0B9F1000F10D01EE0B9F1000F02D069
:1002A000B9F1100F18D1A969761E24F400747F1CCF
:1002B000019888478246102002E0082000E00A20CA
:1002C000814609E008FB0908A969761E44F4007418
:1002D0007F1C019888478246002E05DD494650461E
:1002E00000F086FC0028EDDAE96901988847A0054E
:1002F00002D46FF00100A8E7E00725D1600613D50E
:10030000600502D5C8F1000000E0404629680A1DDA
:100310002A600968220501D5087015E0220701D579
:10032000088011E008600FE02868011D296000685E
:10033000210502D580F8008006E0210702D5A0F84B
:10034000008001E0C0F8008038467EE72DE9FF4FCD
:10035000087883B09946FF2805D0491C2D2804D081
:100360000024002008E000200BE00124F9E700EB66
:10037000800003EB4000491C0B78FF2BF7D104B140
:10038000404200230293147819461D462D2C01D0BB
:100390002B2C04D1521C2D2C13D000240294AA46DD
:1003A0001478FF2C0FD00A25A3FB057801FB0581EB
:1003B0004FF0000C03FB0C11521CE3194AEB010136
:1003C000EEE70124EAE7814453EA010002D019F57F
:1003D000C87F06DA03980021C0E9001107B0BDE824
:1003E000F08F0025AE4E2F46DFF8B882184600F099
:1003F00044FDCDE90001B9F1000002DAC9F10004C1
:1004000000E004460023A74A1AEB030B42EB045A10
:1004100012E0E00707D02A4633463846414600F04E
:10042000B4FA074688462A4633461046194600F075
:10043000ACFA05460E466410002CEAD1DDE9000155
:10044000B9F1000F5A46534606DA00F0A7FC3A46C7
:10045000434600F0A3FC05E000F097FA3A46434615
:1004600000F093FA029A0AB181F00041039AC2E9BE
:100470000001B3E72DE9FF4F1F468DB0D7E90146D4
:100480004FF0FF382E2045464FF000090B90B96918
:100490006D1C0E988847396A824688470028F6D135
:1004A000BAF1FF3F0AD024F4D064002E11DDBAF176
:1004B0002B0F08D0BAF12D0F0BD102E0404611B03E
:1004C0008DE744F48064B9696D1C0E9888478246B4
:1004D000761E6946600501D52D2000E02B208DF8A1
:1004E000000001F1010B0DF1200809E0B9696D1C54
:1004F0000E98884782460F9844F40074761E056073
:10050000002E02DDBAF1300FF0D00B998A453ED1B2
:1005100044F0800406E00F99681CA9F1010944F435
:1005200000740860B9696D1C761E0E988847824673
:100530003028F0D02BE00B998A4505D1200603D452
:1005400044F08004761E18E0504604F019FB08B30E
:100550000DF11301761E44F400748B4508D2AAF104
:1005600030000BF8010B200607D5A9F1010003E0CC
:10057000200602D409F101008146A00502D50F9999
:10058000681C0860B9696D1C0E9888478246002E69
:10059000D1DC53E0002E51DDBAF1650F02D0BAF183
:1005A000450F4BD1A00549D5B9696D1C24F44074A1
:1005B000761E0E9888478246002E0CDD2B2804D02C
:1005C000BAF12D0F07D144F48074B9696D1C0E98EF
:1005D00088478246761EE00501D52D2100E02B21BB
:1005E00008F8011BCDF82C8021E00DF12901761EC1
:1005F00044F4007488450CD2AAF1300010F0FF00DA
:1006000088F8000002D10B99884509D908F1010842
:1006100006E0E00501D5244801E042F20F70814672
:10062000B9696D1C0E98884782460F980560002EA8
:1006300004DD504604F0A4FA0028D6D1F9690E98DA
:100640008847FF208BF8000088F800000020069003
:1006500007904B466A4608A906A8FFF777FEA00553
:1006600002D46FF001002AE714F0240F0AD0E0074B
:1006700014D1DDE906123868031D3B600068C0E94B
:1006800000120BE0DDE9060100F01BFC0146E0076B
:1006900004D13868021D3A600068016028460EE700
:1006A000000014400000F03FF1D8FFFFF0B480EAF2
:1006B0000102D40F4200B2EB410F02D202460846BB
:1006C00011464A0042D0C30DDDB2C1F3C752AD1A84
:1006D000202D35DAC1F3160141F4000204B1524273
:1006E000C5F1200602FA06F12A411044B3EBD05FAF
:1006F00023D0C4B1012DA0EBC35009DCF0BC4FF0F6
:10070000004202EAC352DBB200F5000000F0BBBABF
:10071000400000F1807000EBC350A0F1807040EA0F
:10072000D170490009E0490841EAC071A0EBC3500B
:1007300000F50000400800EBC350F0BC00F09ABA8E
:100740006142012202EB4101001BF6E7F0BC704759
:1007500081F00041AAE780F00040A7E780EA0102AB
:1007600010B502F00043400022D04A001FD0010E15
:1007700001EB1261C0F35600C2F3560240F40000D0
:1007800042F40002A0FB022000047F39140400D0D0
:10079000401C50EA124001D44000491EC2B20C066F
:1007A00004EBD010401C4008802A02D003E0002057
:1007B00010BD20F00100002900DA0020184310BD10
:1007C00030B480EA010202F0004530F0004221F02E
:1007D000004013D090B1C30DD40DC2F31601C0F385
:1007E0001600E41A41F4000140F400027D34914205
:1007F00001D3641C00E04900002C02DA30BC002068
:1008000070474FF400000023914201D3891A03433B
:1008100040084FEA4101F7D151B1914202D14FF066
:10082000004105E002D24FF0010101E06FF001014B
:1008300003EBC450284430BC00F01CBA2DE9FE4F35
:10084000804681EA0300C00F0C46009021F0004171
:1008500023F00045B8EB0200A94105D240462146ED
:1008600090461C460B46024623F00040104347D0FA
:10087000270DC7F30A00C3F30A510290401A0190F2
:1008800040286BDAC3F3130040F4801B00989246B3
:1008900020B10023D2EB030A63EB0B0B01985946FE
:1008A000C0F14002504600F082F906460D4650461F
:1008B0005946019A00F08AF910EB080061410024C2
:1008C00087EA115284EAE7731A4340D0009A62B370
:1008D000019A012A4FEA075215DC001B61EB020165
:1008E0004FF0004202EA0752CDE90042001C41F5F8
:1008F000801132462B4600F003FA03B0BDE8F08FBA
:1009000040462146F9E7001B61EB0201001C41F55E
:10091000801300185B412018A2F5001747EB030174
:1009200040EAD570B6196D4111E06D084FEA360600
:1009300045EAC0754FEA0752001B61EB0201001C3B
:1009400041F5801149084FEA300000195141324603
:100950002B4603B0BDE8F04F00F0C3B90098012268
:1009600040000023D0EB020263EBE07300982146C5
:100970004FEAE074B8EB000061EB0401E9E783F0B3
:1009800000435BE781F0004158E72DE9FE4F81EA23
:10099000030404F0004421F0004100944FF0000BE8
:1009A00023F0004350EA01045ED052EA03045BD016
:1009B000C3F30A54C1F30A552C44A4F2F33401944E
:1009C000A0FB0254C1F3130141F48011C3F31303DC
:1009D00043F4801301FB024400FB034E840A970A90
:1009E00044EA815447EA8357A4FB076802958D0ABD
:1009F00005FB07854FEA932C04FB0C542705029D49
:100A00004FEA065847EA1637B5EB08056EEB070CB8
:100A1000870E920E47EA811742EA8312A7FB020172
:100A2000B6EB0B0164EB00042B0D43EA0C335E18AC
:100A300044EB1C50DA465146E7FB0201C5F31304B0
:100A40004FEA0B3343EA14534FEA0432019C43EA62
:100A50000603A4F10C040294009CCDE900B400F05C
:100A60004FF903B0BDE8F08F00200146F9E7962367
:100A70000022114600F007B920F00040C10DC0F37C
:100A8000160040F400007F2901DA00207047962903
:100A900003DCC1F19601C840704796398840704721
:100AA00000F0004230F000400AD0C10D01F5607145
:100AB000C0F3160042EA0151C208400711437047D3
:100AC000002001467047000030B5041E71F100049B
:100AD00004DB4FF00044404264EB0101141E73F14B
:100AE000000405DB1C464FF00043524263EB040355
:100AF000994208BF904230BD002801DBC0F10040A0
:100B0000002901DBC1F1004181427047002801DB6F
:100B1000C0F10040002901DBC1F10041884270476B
:100B200030B50B46014600202022012409E021FABD
:100B300002F59D4205D303FA02F5491B04FA02F5BA
:100B40002844151EA2F10102F1DC30BD2DE9F05F51
:100B50000546002092469B4688460646814640242C
:100B60001BE02846414647462246FFF7DBFA53463C
:100B70005A46C01A914110D311461846224600F039
:100B800016F82D1A67EB01084F4622460120002176
:100B900000F00DF817EB00094E41201EA4F10104EE
:100BA000DFDC484631462A464346BDE8F09F202A0E
:100BB00004DB203A00FA02F1002070479140C2F1B4
:100BC000200320FA03F3194390407047202A06DBE4
:100BD000CB17203A41FA02F043EAE07306E041FA0B
:100BE00002F3D040C2F120029140084319467047F9
:100BF0003A2800D2303820F02002412A01D3A2F155
:100C00003700884201D34FF0FF307047026811442B
:100C10001378016018467047D16004495161044956
:100C2000116200211161114600F080B90D0C00081D
:100C3000210F0008426842B1016811F8013B23B15D
:100C4000521EC0E90012184670470121C160881E7B
:100C5000704742685AB1C368016843B983688B42E0
:100C600005D0491E521CC0E90012002070474FF009
:100C7000FF3070470029A8BF7047401C490008BFDB
:100C800020F00100704710B4B0FA80FC00FA0CF0BC
:100C900050EA010404BF10BC704749B1CCF12004F4
:100CA00021FA04F411FA0CF118BF01212143084381
:100CB000A3EB0C01CB1D4FEA00614FEA102042BFAD
:100CC000002010BC704700EBC35010440029A4BFA3
:100CD00010BC7047401C490008BF20F0010010BC48
:100CE000704710B5141E73F1000408DA401C41F17E
:100CF000000192185B411A4301D120F0010010BDA0
:100D00002DE9F04D92469B4611B1B1FA81F202E015
:100D1000B0FA80F220329046FFF749FF04460F46B2
:100D200040EA0A0041EA0B0153465A46084313D0F1
:100D3000114653EA010019D0C8F140025046FFF7AE
:100D4000F1F905460E46504659464246FFF72FFF39
:100D5000084305D0012004E020463946BDE8F08D67
:100D60000020054346EAE0762C4337430A986305A2
:100D7000E40AA0EB08000022FD0A44EA47540A30C6
:100D800002D500200146E9E7010510196941DDE9B6
:100D9000084500196941BDE8F04DA2E72DE9F04D85
:100DA00081EA030404F0004B21F0004514464FF0A3
:100DB000000A23F0004150EA050220D054EA010263
:100DC0001DD0C5F30A570246C5F31303C1F3130040
:100DD000C1F30A5640F4801543F48013A7EB0608CC
:100DE000101BD64608F2FD3873EB050002D308F15C
:100DF000010801E092185B41B8F1000F03DA00200E
:100E00000146BDE8F08D00204FF48011064684466F
:100E10000EE0171B73EB050705D3121B63EB0503ED
:100E200006434CEA010C49084FEA300092185B4136
:100E300050EA0107EDD152EA030012D082EA040021
:100E400083EA0501084305D0101BAB4106D20122FD
:100E5000002306E000224FF0004302E06FF00102A1
:100E600053101AEB06004CEB085110EB0A0041EB53
:100E70000B01BDE8F04DFFF734BF0EB540F2334231
:100E800002920022CDE900221346FFF739FF03B09A
:100E900000BDC1F30A52C1F3130140F2FF3341F424
:100EA00080119A4202DA00200146704740F2334333
:100EB0009A42A2F2334202DC5242FFF733B9FFF703
:100EC00076BE01F0004330B421F0004150EA010247
:100ED00006D00A0DA2F56072C1F31301002A02DCEC
:100EE00030BC00207047440F44EAC104C100E01840
:100EF00030BC00EBC250FFF7BDBE0000064C074DF2
:100F000006E0E06840F0010394E8070098471034D9
:100F1000AC42F6D3FFF7EEF82868000848680008EE
:100F2000C0B24FF4F05100F097B900002DE9F34F33
:100F30008BB04FF0000801F10C000C464FF0010B94
:100F400046460DF1080A0190626901210198904717
:100F5000051E2DD0252D2CD0216A8847C0B162698D
:100F6000012101989047216A88470028F7D1411E46
:100F700062690198904700E0761CA1690B98884748
:100F8000216A88470028F7D1E1690B988847DBE799
:100F9000A1690B9888470746A84201D1761CD3E780
:100FA000E1690B9888477F1C02D1B8F1000F6FD020
:100FB00046E1002762693D463946019890472A2854
:100FC00004D162690121019890470125DFF88492DC
:100FD0006269012101989047A0F130010A290AD2E3
:100FE0004F45E5DC07EB870100EB4107303FDFD4DD
:100FF00045F01005ECE7E90601D46FF000476C28D6
:101000000AD04C2814D0682815D06A280DD074282E
:101010001CD07A281AD01DE06269012101989047FE
:101020006C2802D045F0040514E045F002050DE0FF
:1010300045F020050AE0626901210198904768287F
:1010400002D045F0080505E045F40065626901211C
:1010500001989047C4E9015765283DD019DC58280C
:101060007AD00CDC452837D004DC252826D041284E
:1010700031D131E046282FD047282CD12CE05B28F5
:1010800077D0612828D063287CD0642823D15AE007
:10109000D0E06F2848D008DC66281DD067281BD018
:1010A000692821D06E2816D127E0702845D07328F2
:1010B00068D0752847D078280DD14DE0A1690B98EC
:1010C0008847054625283FF469AFE1690B988847B2
:1010D0006D1C3FF46AAFB3E023466A466FF001002F
:1010E0000B99FFF7C7F99EE045F040006060A80744
:1010F00023464FF0000236D43EE0E8077FF447AFC6
:101100002068011D21600068290501D506701BE7D4
:10111000290701D5068017E7A90703D5F117C0E90C
:10112000006111E706600FE745F040006060A80726
:1011300023464FF0080216D41EE040F60E0125EAC1
:101140000100606016E045F040006060A80723469B
:101150004FF00A0207D40FE045F040006060A80796
:1011600008D5234610226FF001000B99AFF30080E1
:1011700059E007E0234610226FF001000B99FFF7BA
:101180003FF850E04FF000094F464B46632802D02D
:101190005B2806D040E0E80601D40120A0600127CA
:1011A0003AE062690121019890475E2805D14FF02D
:1011B00001096269494601989047216939B90021BE
:1011C0000A46534643F82120491C0829FADBB0B3EC
:1011D000216969B9C11700EBD16253110AEB830190
:1011E00022F01F02821A01200B68904003430B601B
:1011F00062690121019890475D28E8D1B9F1000F9B
:1012000009D00020514651F82020D24341F8202037
:10121000401C0828F7DB02AB224600976FF0010064
:101220000B99AFF3008000280CDA401C08D1BBF109
:10123000000F05D04FF0FF300DB0BDE8F08FFFE795
:101240004046F9E7E90701D108F1010806444FF0EB
:10125000000B79E6CCCCCC0C7F2801D9002208E029
:10126000064A02EB5002C007127800D1120902F0C0
:101270000F0201209040084070470000E667000818
:10128000FEE700002DE9F84F00240127194DA14683
:101290004FF0020A4FF0240B661E6100B031884601
:1012A0000A230222144800F00BFC28B9134904EB6E
:1012B000840001EB800087742F7085F801B0022351
:1012C0000C4A41460C48009600F0B0FC85F800A09E
:1012D00085F8019085F802900323064A41460648A6
:1012E000009600F0A3FC641CE4B2042CD5D3BDE846
:1012F000F88F00000C00002074050020DC040020A2
:10130000704772B6FEE7000006490020C861064833
:10131000016941F004010161016941F0400101618D
:10132000704700003007002000200240064A0021DC
:10133000D16106490A6942F002020A6148610869FE
:1013400040F0400008617047300700200020024054
:10135000044B0022DA61044A136943F0010313616C
:10136000018070473007002000200240144800220E
:10137000C168CB06134904D5CA6942F00202CA61AA
:101380001022C3685B0705D5CB6943F00103CB612D
:1013900042F00402C369DB0707D0CB6943F00403C2
:1013A000CB61C16921F00101C161A2F580710139F0
:1013B00001D0C2607047C16921F00101C16170476D
:1013C000002002403007002070B5054600F0AEFA5C
:1013D0000646114C09E0681C07D025B100F0A6FABA
:1013E000801BA84201D9032070BDE068C007F2D17C
:1013F000E068800601D52020E060E068C00605D4E2
:10140000E069C00702D1E068400703D5FFF7AEFFEF
:10141000012070BD002070BD002002400246002067
:101420000146535C491C184489B280B27429F8D330
:101430007047000010B5044676220949FEF782FE87
:101440002088A0F52541A53906D12046FFF7E6FF03
:10145000B4F87410814201D0012010BD002010BDED
:1014600000FC00082DE9F041064686B04AF2A5507E
:101470003080184D4FF03B083046FFF7CFFFA6F8FD
:10148000740000F049F9002000900120CDE90250DD
:1014900004A9684600F0A2F8040005D000F0F2F8B4
:1014A000204606B0BDE8F08136F814200023294616
:1014B000012000F0F1F8070003D000F0E3F838460F
:1014C000EFE7641CA4B2AD1C4445EDD300F0DAF89C
:1014D0000020E6E700FC000810B590F8211000227B
:1014E000022905D00421816380F82020012010BD4D
:1014F00001680B6823F00E030B6001680B6823F092
:1015000001030B6090F84030C46B012101FA03F332
:10151000636080F8211080F82020104610BD000084
:1015200010B590F821100024022903D00421816312
:1015300001243DE001680A6822F00E020A60016899
:101540000A6822F001020A601A4A0168914201D138
:10155000012121E0174A1432914201D110211BE0F0
:10156000144A2832914201D1891515E0114A3C32C2
:10157000914201D189140FE00E4A5032914202D1BA
:101580004FF4803108E00B4A6432914202D14FF4AB
:10159000801101E04FF08071064A083A5160012144
:1015A00080F82110002180F82010416B01B188479C
:1015B000204610BD0800024070B5044600F0B6F9A0
:1015C0000546601C02D004480078044400F0AEF9DF
:1015D000401BA042FAD370BD440000202DE9F04723
:1015E000054626480F460126017E01290FD001211C
:1015F000814601762868DFF888804CF25034022852
:1016000008D0A2462046FFF7DFFEA8B131E0022055
:10161000BDE8F0872046FFF7D7FE08BB0120FFF7A3
:1016200073FE2046FFF7D0FED8F81010064621F0D2
:101630000401C8F810101CE04FF0FF303860AC68AF
:1016400011E02046FFF772FE5046FFF7BDFED8F8C6
:101650001010060021F00201C8F8101001D03C6003
:1016600007E004F58064D5E9020100EB8120A04287
:10167000E7D8002189F818103046C9E73007002064
:10168000002002400348016941F08001016100200F
:1016900070470000002002402DE9F05F07461C481B
:1016A00088460024017E15461E46012909D00121E5
:1016B000814601764CF2503A5046FFF785FE18B14C
:1016C00022E00220BDE8F09F012F02D0022F00D0BF
:1016D0000427D346DFF83CA0220128463146FEF716
:1016E00021FD81B208EB4400FFF732FE5846FFF7B8
:1016F0006BFEDAF8102022F00102CAF8102018B9A7
:10170000641CE4B2BC42E7D3002289F81820D9E770
:101710003007002000200240064900200A69120616
:1017200007D5054A4A60054A4A600969090600D595
:10173000012070470020024023016745AB89EFCDAF
:101740002DE9F84FDFF8B8910024A9F1040B2346E6
:101750000F2709F1040AABF1040EC9E00125A540E9
:101760002A40AA427DD1674ED1F804C0ACEB0608EE
:10177000B44532D014DCBCF1030F3AD009DCBCF123
:10178000000F2AD0BCF1010F1CD0BCF1020F31D1E7
:101790001DE0BCF1110F17D0BCF1120F2AD119E0D6
:1017A000B8F5881F19D006DCB8F5803F15D0B8F51C
:1017B000801F1FD111E0B8F5001F0ED0B8F5041F2F
:1017C00018D10AE0CB6815E0CB681B1D12E0CB688E
:1017D00008330FE0CB680C330CE08B682BB1012B86
:1017E0004FF0080303D0456104E0042302E00561E3
:1017F00000E00023FF2A01D8064601E000F10406BC
:101800004FEA840501D9A5F12005D6F8008007FA32
:1018100005FC28EA0C0803FA05F548EA0508C6F8AD
:1018200000804D68ED0062D5374DAE6946F0010687
:10183000AE61AD6924F0030605F001050095334D56
:1018400006EB050CDCF80850A607360F07FA06F879
:1018500025EA0805DFF8B880404503D14FF00008BD
:1018600017E044E0DFF8AC80404502D14FF00108BA
:101870000FE0DFF8A480404502D14FF0020808E0F5
:10188000DFF89880404502D14FF0030801E04FF0A7
:10189000040808FA06F848EA0508CCF808804D68FC
:1018A000D9F80060ED024D4601D5164300E096439D
:1018B0002E604D68DAF80060AD02554601D516433A
:1018C00000E096432E604D68DBF80060AD035D4696
:1018D00001D5164300E096432E604D68DEF80060A7
:1018E000ED03754601D5164300E096432E60641C57
:1018F0000D682A46E5407FF431AFBDE8F88F00005F
:1019000008040140000011100010024000000140D6
:1019100000080140000C014000100140001401408B
:101920008068084000D001207047000001488068AE
:10193000704700004400002070B5040025D094F8E2
:101940003D00002520B984F83C50204600F004FA00
:10195000242084F83D002068016821F00101016025
:101960002068016841F4004101602068016821F4A9
:101970000041016000F056FB4D4A6168914201D878
:101980004C4900E04C49884201D2012070BD4B49CE
:101990002368B0FBF1F15E6826F03F060E435E60FF
:1019A0006368934206D94FF4967359434FF47A73A0
:1019B000B1FBF3F12368491C1E6A26F03F06314350
:1019C00019626168914210D84900401EB0FBF1F2E3
:1019D000521CC2F30B02042A01D2042022E0B0FB05
:1019E000F1F0401CC0F30B001CE0A268F2B301EB65
:1019F000C10303EB0116431EB3FBF6F35B1C43F478
:101A000080431B0549D092B301EBC10202EB0111E7
:101A1000401EB0FBF1F0401CC0F30B0040F48040CE
:101A200040F400402168CA694CF6FF739A431043A2
:101A3000C861D4E9071001432068026822F0C0029F
:101A400011430160D4E9030101432068826848F230
:101A5000FF339A4311438160D4E9050108432168AB
:101A6000CA6822F0FF021043C86001E00EE016E0F1
:101A70002068016841F0010101602564202084F89C
:101A80003D00256384F83E50002070BD01EB410607
:101A9000431EB3FBF6F35B1CB3E70120C2E701EB87
:101AA0004101401EB0FBF1F0401CC0F30B00B7E752
:101AB000A086010080841E0000093D0040420F0006
:101AC0002DE9FF4F81B089460446FFF72FFF0546F9
:101AD00094F83D004FF0000820287DD11923012201
:101AE00050492046009501F09DFA002874D194F8E1
:101AF0003C00012870D0012084F83C002068016877
:101B0000C90703D1016841F0010101602068016843
:101B100021F400610160242084F83D000026266441
:101B20004148E0624FF0011B20272068016841F422
:101B3000807101600095002259462046049B01F007
:101B400071FA50B120680068C00502D54FF40070EA
:101B50002064032005B0BDE8F08F216809F0FE0085
:101B60000861FFF7E3FE2168054648694969C0F34B
:101B70004000C1F380214FF0A00A0FE0FFF7D6FE2E
:101B8000411B0498814200D808B984F83DA021681F
:101B900048694969C0F34000C1F3802194F83D20B1
:101BA000A02A02D008B90029E8D084F83D70206846
:101BB0004169C943890716D4016841F40071016085
:101BC0002068416980691923012216492046009541
:101BD00001F028FAB8B900E021E084F83D7084F8FB
:101BE0003C600020B6E7016841F4007101602168A3
:101BF0006FF480604861192301220A49204600954C
:101C000001F010FA08B10120A4E7039808F10108D7
:101C100080458AD384F83D7084F83C60F3E7022065
:101C200098E70000020010000000FFFF2DE9F84FC8
:101C30001F4690468A460446DDF82890FFF776FE58
:101C4000054694F83D0020287FD119230122404900
:101C50002046009501F0E6F9002876D194F83C0082
:101C6000012872D0012084F83C0020680168C9076F
:101C700003D1016841F0010101602068016821F48D
:101C800000610160212084F83D00102084F83E00AE
:101C900000262664C4F824806785608D20852D4841
:101CA000E0622B464A465146204601F041F990B980
:101CB000206841698069009036E02A4649462046FE
:101CC00001F056FA50B1206C042804D12068016854
:101CD00041F4007101600120BDE8F88F606A21685D
:101CE00000780861606A401C6062618D491E6185F0
:101CF000218D491E89B2218522685369DB435B0728
:101D00000BD451B100781061606A401C6062608D34
:101D1000401E6085208D401E20852A46494620466B
:101D200001F054F90028CED1208D0028C5D154F8F7
:101D30003D0B016841F400710160202004F81E0988
:101D4000E67766770020C7E7FFE70220C4E70000D8
:101D5000020010000000FFFF10B586B000210091C6
:101D600001910291039100681349884222D1134CDA
:101D7000A06940F00800A061A069694600F0080071
:101D800004904FF4407000901220019003200390C3
:101D90000B48FFF7D5FC0B48416841F0E06141F08A
:101DA00002014160E06940F40010E061E06900F484
:101DB0000010049006B010BD005400400010024016
:101DC000000C014000000140024881680278114483
:101DD0008160704744000020074810B5016841F059
:101DE00010010160032000F075F80F2000F006F8E4
:101DF00000F024F8002010BD0020024070B50D4D09
:101E000004464FF47A712878B1FBF0F00A4909686A
:101E1000B1FBF0F000F0DCFA48B9102C07D2002238
:101E20002146501E00F036F800206C6070BD012085
:101E300070BD000044000020500000200C4808B590
:101E4000816941F001018161816901F00101009125
:101E5000C16941F08051C161C06900F080500090BB
:101E60000448416821F0E06141F00071416008BD23
:101E70000010024000000140002809DB00F01F02B2
:101E8000012191404009800000F1E020C0F80011DC
:101E900070470000F0B40E4B1B680C46C3F30223DE
:101EA000C3F10705042D00D90425191D072901D206
:101EB000002300E0DB1E012606FA05F1491E214041
:101EC00099409E40761E16403143F0BC02F076BD2C
:101ED0000CED00E0064900F0070208684FF6FF032A
:101EE000184040EA0220034A10430860704700008F
:101EF0000CED00E00000FA052DE9F0470F46050063
:101F000061D0434E306800F00700B84209D2306813
:101F100020F0070038433060306800F00700B84216
:101F200051D128683B4C810712D5400703D5606822
:101F300040F4E06060602878000703D5606840F4F2
:101F4000605060606068A96820F0F000084360603D
:101F50002878C00728D06868012810D02168022896
:101F600010D0890700292EDA616821F003010143AE
:101F70006160FFF7DBFC804641F288390DE02168A3
:101F80008903EFE78901EDE7FFF7D0FCA0EB08013B
:101F9000494502D90320BDE8F0876068696800F010
:101FA0000C00B0EB810FEFD1306800F00700B842B1
:101FB0000BD9306820F0070038433060306800F0FB
:101FC0000700B84201D00120E5E72878400705D591
:101FD0006068E96820F4E0600843606028780007E2
:101FE00006D56068296920F4605040EAC10060604D
:101FF00000F038F86168084AC1F30311515CC84029
:102000000649086006480068FFF7F8FE0020C2E7AE
:102010000020024000100240CE670008500000205F
:10202000480000200448054900684968044AC1F393
:102030000221515CC840704750000020001002404F
:10204000DE6700080448054900684968044AC1F38E
:10205000C221515CC840704750000020001002406F
:10206000DE6700080E4A51680E4801F00C03042B8D
:1020700011D0082B0FD10C48C1F38343C903C05CB6
:102080000AD55168084AC1F34041921E515C054A85
:102090005043B0FBF1F070470449484370470000DB
:1020A0000010024000127A00BE67000800093D00DF
:1020B0002DE9F84F040070D02078C04DC00749D0FA
:1020C0006868C0F38100012807D06868C0F3810008
:1020D000022809D16868C00306D52868800339D56D
:1020E00060680028E7D035E06068B0F5803F0BD02D
:1020F00010B1B0F5A02F11D0286820F480302860EE
:10210000286820F4802002E0286840F480302860AD
:10211000606890B1FFF70AFC06460AE0286840F4C0
:1021200080202860F0E700BFFFF700FC801B6428D8
:1021300073D828688003F7D50CE0FFF7F7FB064655
:1021400005E000BFFFF7F2FB801B6428F0D8286889
:102150008003F7D420789A4E80074FF001094FF0A2
:10216000000839D5686810F00C0F07D06868C0F314
:102170008100022809D16868C00306D42868800756
:1021800014D52069012808D110E02069B0B1C6F843
:102190000090FFF7CBFB074605E00AE1FFF7C6FB1F
:1021A000C01B0228C4D828688007F7D52868616951
:1021B00020F0F80040EAC10028600DE0C6F8008079
:1021C000FFF7B4FB074604E0FFF7B0FBC01B022893
:1021D00023D828688007F7D4207800072CD57948C1
:1021E000A169D9B1C0F80090FFF7A0FB074604E051
:1021F000FFF79CFBC01B02280FD8686A8007F7D541
:1022000071484FF4FA510068B0FBF1F0009000BF44
:102210000098411E0091FAD20EE080E0C0F80080E4
:10222000FFF784FB074604E0FFF780FBC01B022892
:1022300075D8686A8007F7D42078400760D5E869C8
:102240000027C00008D4E86940F08050E861E869E0
:10225000012700F0805000905C480168C90513D444
:102260000168834641F480710160FFF75FFB82469D
:1022700006E000BFFFF75AFBA0EB0A0064284ED827
:10228000DBF80000C005F5D5E06801280AD008B1E8
:10229000052813D0286A20F001002862286A20F05F
:1022A000040002E0286A40F001002862E06841F280
:1022B000883B98B1FFF73AFB82460BE0286A40F072
:1022C00004002862EEE700BFFFF730FBA0EB0A0135
:1022D00059455AD8286A8007F6D50CE0FFF726FB47
:1022E000824605E0FFF722FBA0EB0A0159454CD8D6
:1022F000286A8007F6D41FB1E86920F08050E861B1
:10230000E06988B36968C1F38101022944D00228D9
:10231000C6F8608004D0FFF709FB044638E034E0DB
:10232000FFF704FB074604E0FFF700FBC01B022891
:102330002BD828688001F7D4206AB0F5803F05D1FA
:102340006868A16820F4003008436860D4E9080197
:102350000843696821F4741108436860C6F8609006
:10236000FFF7E4FA044606E025E000BFFFF7DEFAD7
:10237000001B022809D828688001F7D51BE000BFA0
:10238000FFF7D4FA001B022802D90320BDE8F88F1A
:1023900028688001F4D40EE00128F7D06868226A2A
:1023A00000F48031914204D1616A00F470108842D7
:1023B00001D00120EAE70020E8E700000010024019
:1023C0000000424280044242500000200070004061
:1023D00010B5401EB0F1807F01D3012010BD4FF039
:1023E000E02460610F21601702F0E8FA0020A0618C
:1023F00007202061002010BD7047704710B590F88D
:102400003C20012A22D0012280F83C20CA688C6836
:1024100022F4407222434C6822F4806222430C680A
:1024200022F4006222430C6922F4805222434C6958
:1024300022F400522243C969002322F480420A4355
:1024400001684A6480F83C30002010BD022010BDB5
:1024500070B590F83C20012A26D0012480F83C4039
:10246000022280F83D2003685A689D6822F07006B9
:102470000A6832435A600D4B02689A4208D0B2F1A2
:10248000804F05D00A4B9A4202D00A4B9A4204D19F
:10249000496825F080031943916080F83D40002190
:1024A00080F83C10084670BD022070BD002C014031
:1024B000000400400008004010B5040003D094F868
:1024C0003D0010B107E0012010BD002084F83C0061
:1024D000204600F01FF8022084F83D00211D2068EE
:1024E00001F0D6FF012084F8460084F83E0084F80D
:1024F0003F0084F8400084F8410084F8420084F8EA
:10250000430084F8440084F8450084F83D0000202E
:1025100010BD000008B51C4A01681C48914207D153
:10252000816941F400618161806900F400600CE020
:10253000B1F1804F0BD0164A91421AD1C16941F0D6
:102540000201C161C06900F00200009008BDC169CC
:1025500041F00101C161C069002200F0010000905A
:1025600011461C20FFF796FCBDE808401C20FFF731
:1025700083BC084A9142E9D1C16941F00401C161BB
:10258000C06900F00400E0E7002C014000100240A8
:10259000000400400008004090F83D10012901D0DF
:1025A00001207047022180F83D100168CA6842F09E
:1025B0000102CA6000680B49884208D0B0F1804F20
:1025C00005D00949884202D00849884204D181686F
:1025D00001F00701062903D0016841F00101016003
:1025E00000207047002C014000040040000800401B
:1025F00070B5044690F83C000025012817D001264C
:1026000084F83C60022084F83D002068826822F053
:10261000770222F47F4282600868502838D00DDCAF
:1026200020284FD005DC90B3102811D14AE00220B9
:1026300070BD302846D040280AD13BE060282FD01A
:1026400070280DD0B0F5805F03D0B0F5005F12D0D8
:10265000012584F83D60002084F83C00284670BDC8
:10266000CB68D1E90121206801F05BFF2068816817
:1026700041F0770109E0CB68D1E90121206801F040
:1026800050FF2068816841F480418160E1E719E0F2
:10269000CA684968206801F0F9FF5021206806E007
:1026A000CA684968206802F002F86021206801F0D9
:1026B00042FFCEE7CA684968206801F0E7FF402181
:1026C0002068F4E7226801461046F0E770472DE9DC
:1026D000F04104460068C66805694FF00007A90785
:1026E00013D5B10711D5F91E0161012020772068AB
:1026F00080698007204602D0FFF7E8FF04E000F081
:10270000DBF8204600F06DF92777680716D57007CB
:1027100014D521686FF0040008610220207720683A
:10272000806910F4407F204602D0FFF7CFFF04E01D
:1027300000F0C2F8204600F054F92777280715D595
:10274000300713D521686FF0080008610420207756
:102750002068C0698007204602D0FFF7B7FF04E079
:1027600000F0AAF8204600F03CF92777E80616D5D5
:10277000F00614D521686FF010000861082020775A
:102780002068C06910F4407F204602D0FFF79EFF0A
:1027900004E000F091F8204600F023F92777E807DD
:1027A00008D0F00706D021686FF0010008612046CC
:1027B00000F066F9280608D5300606D521686FF0C6
:1027C000800008612046FFF717FE680608D57006EE
:1027D00006D521686FF040000861204600F051F9ED
:1027E000A8060AD5B00608D521686FF02000086158
:1027F0002046BDE8F041FFF700BEBDE8F0810000D3
:1028000030B585B000210091019102910391244CD3
:102810000368244902222448A3420CD18B6943F067
:1028200004038B618969039201F00401049181150D
:10283000CDE9001212E0B3F1804F15D01B4D4024BA
:10284000AB421BD18B6943F004038B618969CDE9ED
:10285000004201F0040100BFCDE903214FEA0D0160
:10286000FEF76EFF05B030BD8B6943F004038B614A
:102870008969009201F004010192EDE70C4883425E
:10288000F0D1886940F0080088618869CDE900428C
:1028900000F00800CDE9032069460648E0E70000A3
:1028A000002C0140001002400008014000040040DC
:1028B00000080040000C0140704770B5044690F8D5
:1028C0003C0000260D4601280FD0012084F83C0072
:1028D0006AB1042A1DD0082A2FD00C2A3FD0012625
:1028E000002084F83C00304670BD022070BD206896
:1028F00001F02AFE2068816941F0080181612068A9
:10290000816921F004018161206881692A6911438C
:1029100011E0206801F040FE2068816941F4006107
:1029200081612068816921F4806181612068816909
:102930002A6941EA02218161D2E7206801F058FE4C
:102940002068C16941F00801C1612068C16921F0B6
:102950000401C1612068C1692A69114311E020683E
:1029600001F072FE2068C16941F40061C161206814
:10297000C16921F48061C1612068C1692A6941EAA5
:102980000221C161ACE710B5040003D094F83D000A
:1029900010B107E0012010BD002084F83C00204663
:1029A00000F01EF8022084F83D00211D206801F08F
:1029B0006FFD012084F8460084F83E0084F83F0053
:1029C00084F8400084F8410084F8420084F8430011
:1029D00084F8440084F8450084F83D00002010BDD0
:1029E0007047704710B50446022249B104290ED041
:1029F000082913D094F84100012816D0012010BDF9
:102A000094F83E000128F9D184F83E200FE094F8B4
:102A10003F000128F2D184F83F2008E094F84000FC
:102A20000128EBD184F8402001E084F84120012204
:102A3000206801F069FD0F492068884203D1426C8B
:102A400042F4004242642068884208D0B0F1804FCE
:102A500005D00949884202D00849884204D18168DA
:102A600001F00701062903D0016841F0010101606E
:102A7000002010BD002C0140000400400008004070
:102A80007047704770477047F8B50168044608689A
:102A9000CA684B6910F00F0F4FF0000559D003F0D2
:102AA000010602F49077374365D0C10705D0D10500
:102AB00003D5616C41F001016164410705D5D90777
:102AC00003D0616C41F002016164810705D5D9072B
:102AD00003D0616C41F004016164010707D502F085
:102AE0002001314303D0616C41F008016164616CE5
:102AF00000293AD0800604D5900602D5204601F080
:102B000017FE20684069616CC0F38010090700D48B
:102B100060B3204601F0E5FD20684069400621D5FC
:102B20002068143050E8001F21F0400140E80012F6
:102B3000002AF5D1E06BA8B16D494163E06BFEF767
:102B4000EFFC002811D0E06B416B01B0BDE8F04014
:102B5000084783060FD593060DD52046BDE8F840FB
:102B600001F0E6BD2046FFF78EFFF8BD2046FFF7D7
:102B70008AFF6564F8BD266B2023012E7CD1C60632
:102B80007AD5D60678D508684868009048694FF02D
:102B90000206400640D5E16B086840680004000C5E
:102BA000E8D0A28D8242E5D9E085886920282DD021
:102BB00020680C3050E8001F21F4807140E80012BA
:102BC000002AF5D12068143050E8001F21F00101DF
:102BD00040E80012002AF5D12068143050E8001FA8
:102BE00021F0400140E80012002AF5D184F842307B
:102BF000256320680C3050E8001F21F0100140E8E8
:102C00000012002AF5D1E06BFEF766FC6663A08D2A
:102C1000E18D401A81B22AE0A08DE18D401A81B287
:102C2000E08D0028A6D00029A4D022680C3252E8FA
:102C3000000F20F4907042E80007002FF5D12068C3
:102C4000143050E8002F22F0010240E80027002F46
:102C5000F5D184F84230256320680C3050E8002F0D
:102C600022F0100240E80023002BF5D166632046D5
:102C7000FFF708FFF8BDFFE705062BD5150629D598
:102C800094F841002128F5D1A068B0F5805F01D10A
:102C90002069B0B1206A411C216221680078486037
:102CA000E08C401E0004000CE084E3D12068C16881
:102CB00021F08001C1602068C16841F04001C1601D
:102CC000D8E7206A0088C0F308004860206A801CAA
:102CD0002062E5E74006CDD55006CBD5CA68204630
:102CE00022F04002CA6084F8413000F007F9C1E7E1
:102CF000D346000870B5040004D094F841000025C4
:102D000010B106E0012070BD84F84050204600F06C
:102D100023F8242084F841002068C16821F4005180
:102D2000C160204601F066FD2068016921F49041F0
:102D300001612068416921F02A0141612068C16870
:102D400041F40051C1606564202084F8410084F89A
:102D500042006563002070BD30B585B0002400944A
:102D60000194029403940068184988422CD11848B1
:102D7000816941F480418161816901F4804104915C
:102D8000816941F0040181618069124D00F0040005
:102D900004904FF4007000900220019003200390F3
:102DA00069462846FEF7CCFC2815CDE900046946A3
:102DB00028460294FEF7C4FC002211462520FFF7A6
:102DC00069F82520FFF758F805B030BD00380140FC
:102DD000001002400008014090F84230202B01D042
:102DE0000220704721B11AB10023036301F05EBDD8
:102DF0000120704770B500681449884224D1154CF1
:102E0000134DA079295C0A290BD03F2801D2401C20
:102E1000A071A0792918BDE8704001220E48FFF783
:102E2000DBBF00262E5430B1284410F8011C0D29B8
:102E300001D100F8016C0649A1F14000FDF7BBF992
:102E400001202071A671E4E770BD00000038014048
:102E50009C04002000000020E80600202DE9F84333
:102E6000044690F84100984616460D46202802D0A8
:102E70000220BDE8F88385B17EB100206064212086
:102E800084F84100FEF752FDA6848146E684A068DE
:102E90002027B0F5805F02D003E00120E9E7206938
:102EA00010B12E4600250EE000260CE080212046C1
:102EB00001F017FDA8B9C6B116F8010B21684860EA
:102EC000E08C401EE084E08C4B464FF00002CDF8D1
:102ED00000800028EAD14FF04001204601F001FDBA
:102EE00040B184F841700320C3E735F8020BC0F30A
:102EF0000800E3E784F841700020BAE77047FEE776
:102F000001684A69D24352050FD46FF480624A6166
:102F1000002140F8301F202242738173026942F081
:102F20000402026101730120704700207047000015
:102F3000F8B50446C06A1E460D461746082807D055
:102F4000012805D010F5803F02D0206B122804D153
:102F50002068016841F480710160134600224FF03F
:102F600001112046009600F05DF840B1206800682D
:102F7000C00502D54FF4007020640320F8BD20691D
:102F8000B0F5804F0ED00620216800EAD51040F041
:102F9000F000086133463A460B49204600F08AF8B3
:102FA00078B902E005F0FE0000E0E8B221680861AF
:102FB000054933463A46891F204600F07BF8002831
:102FC000DCD00120F8BD00000800010070B51646F5
:102FD0000D4604461EE02046FFF792FF08B101208F
:102FE00070BD681C16D0FEF7A1FC801BA84200D85B
:102FF00085B920684069C04340070BD5002044F8DC
:10300000300F20216173A073216941F020012161FB
:103010002073E4E720684069C0434007DBD4002008
:1030200070BD00002DE9F047984617460D4604464E
:10303000C1F30746DDF820902AE000BFB8F1FF3F5A
:1030400026D0FEF773FCA0EB0901414502D8B8F188
:10305000000F1DD12068012E16D0806925EA0000DE
:103060000004000C12D00020B84211D1002044F816
:10307000300F20216173A073216941F0200121618B
:1030800020730120BDE8F0874069E7E70120EBE706
:103090002068012E0AD0806925EA00000004000C97
:1030A00006D00020B842C9D00020EBE74069F3E722
:1030B0000120F7E72DE9F047984616460D460446ED
:1030C0004FF000094FF0200AC1F3074723E02068C2
:1030D0004069C043400515D42068016841F400717F
:1030E000016021686FF480604861C4F8309084F812
:1030F0003DA084F83E90216C41F00401216484F8E5
:103100003C9021E0701C06D0FEF710FCA0EB0800FC
:10311000B04203D816B1012F1FD021E02068012F43
:1031200015D0806925EA00000004000C18D000BF0B
:1031300044F8309F84F80DA084F80E90216941F086
:103140002001216184F80C900120BDE8F0874069DE
:1031500025EA00000004000CEAD12068406901E083
:103160002068806925EA00000004000CAFD1ECE77C
:1031700070B516460D4604461EE02046FFF7C0FE19
:1031800008B1012070BD681C16D0FEF7CFFB801B74
:10319000A84200D885B920684069C04300060BD515
:1031A000002044F8300F20216173A073216941F0A1
:1031B000200121612073E4E720684069C0430006D4
:1031C000DBD4002070BD00002DE9F84FDFF8ECB330
:1031D00008215846FEF7A4FBDFF8E4830127002608
:1031E000F84D012898F800104FF4C87A4FF4FA7996
:1031F00008F12404404602D0012977D019E171B1C9
:103200000169491C016101690A290AD3017A41B1A6
:1032100041894945F2D2491CA8F80A1009E1077012
:1032200006E100690A28E9D320790028E6D0E07891
:10323000022808D0032820D004282BD0052836D017
:10324000062844D0F5E0607800EB800015F82010E7
:1032500031B105EB8000818849450BD18680E8E0DB
:1032600005EB80014888504501D14E80E1E0401CCB
:103270004880DEE0491C8180DBE0607800EB800064
:1032800005EB8001C888642802D2401CC880D0E0C9
:10329000CF80CEE0607800EB800005EB8001087AFB
:1032A000642802D2401C0872C3E00E72C1E060784C
:1032B00000EB800015F8201005EB800019B1818922
:1032C0000A318181B5E041890A314181B1E06078FC
:1032D00000EB800015F82010002905EB800108D0D4
:1032E000088AC82803D20A300882A2E009E00E82C8
:1032F0009FE0C889C82802D20A30C88199E0CE81EF
:1033000097E001690A297BD2017A29B141894945AF
:1033100001D2491C418189E0A17879B32179002942
:10332000E17879D001290AD0022914D003292CD0C0
:10333000042937D0052942D0062952D076E0617899
:1033400001EB810115F821201AB1002205F8212096
:103350006CE00122FAE7617801EB810115F8212088
:10336000002A05EB810204D0918849450AD1968054
:103370005CE05188514502D1568057E052E0491C2B
:10338000518053E0491C918050E0617801EB81014C
:1033900005EB8102D188642902D2491CD18045E025
:1033A000D78043E0617801EB810105EB8102117A5E
:1033B000642902D2491C117238E0167236E0617835
:1033C00001EB810115F821202AB105EB81029189D9
:1033D000491C91812AE005EB81014A89521C4A81EE
:1033E00024E0617801EB810115F82120002A05EB2A
:1033F000810209D0118AC82904D2491C118215E022
:1034000015E009E0168211E0D189C82902D2491CD1
:10341000D1810BE0D68109E011B1491EE17005E0D0
:103420000621FBE7617889B1491E6170067006705C
:10343000066110215846FEF773FA6421012807D06F
:1034400098F801004246012874D031E10321ECE7ED
:1034500098F80120404672B14269521C42614269AB
:103460000A2A0BD3027A4AB14189002902D0491EA7
:10347000A8F80A101CE14770466119E140690A2862
:103480000DD3207900280AD0E078022808D003283C
:1034900020D004282BD0052835D006284DD007E1B0
:1034A000607800EB800015F8201031B105EB80004A
:1034B000818861B1491E8180FAE005EB800148886E
:1034C00010B1401E4880F3E0A1F802A0F0E0A0F89F
:1034D0000490EDE0607800EB800005EB8000C2888E
:1034E000012A02D9521EC280E2E0C180E0E0607889
:1034F00000EB800005EB8002107A10B1401E1072C4
:10350000D6E01172D4E0607800EB800015F820104E
:10351000002905EB800107D088890A2802D30A38E0
:103520008881C5E08E81C3E048890A2803D30A3820
:103530004881BDE01AE04E81BAE0607800EB80007F
:1035400015F82010002905EB800107D0088A0A2809
:1035500002D30A380882ABE00E82A9E0C8890A28A3
:1035600002D30A38C881A3E0CE81A1E050690A28BD
:1035700073D2107A20B15089F8B1401E508194E086
:10358000A07888B320790028E07867D001280AD095
:1035900002281BD0032833D004283ED0052848D069
:1035A00006285CD081E0607800EB800015F82010E0
:1035B00051B1002105F8201077E065E000080140D6
:1035C00000000020DC0400200121F3E7607800EB1C
:1035D000800015F82010002905EB800105D08888AF
:1035E00058B1401E888060E058E0488810B1401E05
:1035F00048805AE0A1F802A057E0A1F8049054E0F6
:10360000607800EB800005EB8003D888012802D9A0
:10361000401ED88049E0D98047E0607800EB800008
:1036200005EB8003187A10B1401E18723DE0197244
:103630003BE0607800EB800015F8201031B105EB1D
:103640008001888900B3401E88812EE005EB800050
:103650004189C9B1491E418127E027E017E0607820
:10366000C82100EB800015F82030002B05EB80030B
:1036700006D0188A10B1401E188216E0198214E094
:10368000D88910B1401ED8810FE0D9810DE0401CCF
:10369000C0B2E070062808D9E67006E06078401CE9
:1036A000C0B26070042800D16670567056705661C2
:1036B00020215846FEF734F9012898F802104046B8
:1036C0001ED0012920D198F80800554940B36278EE
:1036D000B8F80A3002EBC20001EB400198F809008B
:1036E000454621F81030401CC0B288F8090009286E
:1036F0000FD34C48875400F001FE2E726E728BE09F
:1037000021B18169491C8161BDE8F88F87708661AC
:10371000FAE731F81010A8F80A1001F00BFF7BE06F
:10372000A07870B3E07810B1052803D02CE02671A2
:10373000A6706DE0627802EB820015F8200010B1EF
:1037400001281FD020E088F8087002EBC20388F837
:10375000096031F813103348A8F80A1014382421EE
:103760000770417051004FF0FF302E4A0090022345
:10377000143A2D48B031FEF759FA002001F0DAFE74
:1037800002E047E001F0C4FF207908B3E0780128A7
:103790000AD002280BD0032815D0042816D00528FB
:1037A00017D006281CD030E001F0CCFF22E0607872
:1037B00000EB800015F8200010B102F0ADF819E020
:1037C00001F0E6FE16E002F045F813E001F0EAFF32
:1037D00010E0607800EB800015F8200030B91BE0A5
:1037E000607800EB800015F8200070B102F094F8CA
:1037F00000F084FDE078052805D1607800EB8000BA
:1038000015F8200040B1207910B10020207103E0AC
:103810000120FBE7A770267188F8026074E70000BA
:103820002C0500202000002074050020F0B59FB07A
:103830006846FDF7FFFD18B101F098FD1FB0F0BD1F
:103840001A4C002004F150054FEA0D0202EBC001B2
:1038500000EB800604EB86034F885F818F889F8191
:10386000CF88DF810989198202EB860300EBC0064D
:10387000002105EB460600BF03EB41077F8C26F8CD
:103880001170491CC9B20929F6D393F83410084BBA
:103890001954401CC0B20428D8D39DF87200411EB0
:1038A0006229CBD8A3F12001C871C7E7DC0400204E
:1038B0002000002000B585B0002001900390114841
:1038C000816941F020018161816901F02001049149
:1038D000816941F004018161816901F00401049171
:1038E000816941F0080181618069694600F0080042
:1038F000049038200090022002900348FDF720FF3A
:1039000005B000BD00100240000801400D4810B590
:103910000B4901600C49416000214FF480428160F5
:10392000C0E9031241618161C1610162FEF704F8DF
:10393000002803D0BDE81040FDF7E3BC10BD000037
:103940000054004074050020A086010010B596B018
:1039500000240F9410941194129413941C2108A81D
:103960001494FCF708FC20216846FCF704FC284866
:103970002649016040F2CF21C0E901146321C0E96A
:10398000031444618461FEF797FD08B1FDF7B9FCAB
:103990004FF480500F900FA91D48FEF729FE08B183
:1039A000FDF7AFFC1A48FEF7EEFF08B1FDF7A9FCE2
:1039B000139413A916481494FEF74AFD08B1FDF7B5
:1039C000A0FC6020CDE908040A940B940C940D949B
:1039D000002208A90E480E94FEF76FFF08B1FDF70C
:1039E00090FC00944FF40050CDE9044002940194FF
:1039F0000394694606480794FEF700FD08B1FDF7F9
:103A000080FC0348FEF7FCFE16B010BD002C014000
:103A1000C805002010B58EB00024079408940994BE
:103A20000A940B941C2168460C94FCF7A4FB1E48D6
:103A30004FF08041016040F2CF21C0E901146321C1
:103A4000C0E903148461FEF737FD08B1FDF759FCA6
:103A50004FF48050079007A91348FEF7C9FD08B13D
:103A6000FDF74FFC1048FEF78EFF08B1FDF749FC4B
:103A70000B940BA90C480C94FEF7EAFC08B1FDF777
:103A800040FC6020CDE90004029404226946064807
:103A90000494FEF712FF08B1FDF733FC0248FEF76D
:103AA000AFFE0EB010BD00001006002010B58EB0A5
:103AB00000240794089409940A940B941C216846E6
:103AC0000C94FCF758FB1E481C49016040F2CF21C2
:103AD000C0E901146321C0E903148461FEF7ECFC22
:103AE00008B1FDF70EFC4FF48050079007A9144869
:103AF000FEF77EFD08B1FDF704FC1148FEF743FF19
:103B000008B1FDF7FEFB0B940BA90D480C94FEF7D2
:103B10009FFC08B1FDF7F5FB6020CDE9000402949D
:103B20000022694606480494FEF7C7FE08B1FDF777
:103B3000E8FB0348FEF764FE0EB010BD0004004031
:103B40005806002010B58EB00024079408940994FC
:103B50000A940B941C2168460C94FCF70CFB1E483D
:103B60001C49016040F2CF21C0E901146321C0E982
:103B700003148461FEF7A0FC08B1FDF7C2FB4FF40B
:103B80008050079007A91448FEF732FD08B1FDF7F1
:103B9000B8FB1148FEF7F7FE08B1FDF7B2FB0B9436
:103BA0000BA90D480C94FEF753FC08B1FDF7A9FBD7
:103BB0006020CDE90004029400226946064804947E
:103BC000FEF77BFE08B1FDF79CFB0348FEF718FEED
:103BD0000EB010BD00080040A00600200C4810B533
:103BE0000A4901604FF416514160002181600C22A6
:103BF000C160C0E904128161C161FFF77BF8002850
:103C000003D0BDE81040FDF77CBB10BD003801407B
:103C1000E8060020FEE7FEE770B5064D002400BF71
:103C200005EBC4108021FCF7A6FA641CE4B2082C52
:103C3000F6D370BD5C00002010B56420FDF7BCFC1D
:103C4000AE2000F00DF9D52000F00AF9802000F038
:103C500007F9A82000F004F93F2000F001F9D32073
:103C600000F0FEF8002000F0FBF8402000F0F8F82B
:103C7000A12000F0F5F8C82000F0F2F8DA2000F0FA
:103C8000EFF8122000F0ECF8812000F0E9F8CF20E6
:103C900000F0E6F8D92000F0E3F8F12000F0E0F8B9
:103CA000DB2000F0DDF8302000F0DAF8A42000F08E
:103CB000D7F8A62000F0D4F88D2000F0D1F8142019
:103CC00000F0CEF8AF2000F0CBF8FFF7A5FFBDE87D
:103CD000104000F0B1B80000F0B50B4423E00446FA
:103CE00085181CE0802C18D2002916DB402914DA34
:103CF000CE1701EB567C4FEAEC070C4E2CF0070C6C
:103D000006EBC7162644A1EB0C0E37784FF0010CDA
:103D10000CFA0EFC87EA0C073770641C24B2A5422B
:103D2000E0DC491C09B28B42D9DCF0BD5C0000200C
:103D300010B50C4640F0B00000F092F8102040EAB8
:103D4000141000F08DF804F00F00BDE8104000F0F2
:103D500087B800002DE9F04F8E468246062B0FD023
:103D6000082B4BD12648082400EB02131026A3F59C
:103D70000073002B42D00021224D4FF001093BE09F
:103D8000214902EB420001EB400306240826C03B18
:103D9000EFE700202CE000BF0EEB0002D71702EB8C
:103DA000577CCCF3C7072CF0070CA2EB0C024FEAB0
:103DB000D00C0CFB04FC03EB010805EBC7171CF847
:103DC00008C000F007082CFA08FC0AEB010BD2B27D
:103DD0001CF0010F17F80B8009FA02FC02D048EA28
:103DE0000C0801E028EA0C08401C07F80B80C0B260
:103DF000B042D1D3491CC9B2A142CAD3BDE8F08FA9
:103E0000745F00085C000020646500082DE9F04143
:103E10001E46154688460746002408E004FB067047
:103E200000B233464146FFF795FF641CE4B22A5DB9
:103E3000002AF3D1BDE8F08170B5084D00240021BF
:103E40002046FFF775FF05EBC410802100F018F83D
:103E5000641CE4B2082CF2D370BD00005C000020AA
:103E60001CB5002101918DF80500481E0090022329
:103E700001AA78210148FDF7D9FE1CBD7405002078
:103E8000F8B506460C46481C01F01EFB05464020CE
:103E9000287022463146681CFCF754F94FF0FF3079
:103EA0000090631C2A4678210348FDF7BFFE284690
:103EB000BDE8F84001F014BA740500202DE9F04384
:103EC00095B0074613AB12AA91A1FCF77DF9DFF874
:103ED0004C82934C934E4FF0FF39022839D19DF814
:103EE0004850002D35D0042D33D8681EC7B2414646
:103EF0001398FCF733FCFCF7BFFD80B2B0F5C87F28
:103F000016D8B11D21F8170007EB870104EB8102D9
:103F10005080002004F82100777001F039FB1398DD
:103F2000FCF7BEFDCDE900019DF848307EA247E0D8
:103F3000002083492B4683A240E002A8FCF726F923
:103F400082B24B4602A98748FEF788FF15B0BDE84C
:103F5000F08313AB12AA84A13846FCF735F9022886
:103F600034D19DF8485085B3042D2FD8681EC7B2B0
:103F700041461398FCF7F2FBFCF77EFD80B2B0F5EA
:103F8000FA7F17D867490E3121F8170007EB870130
:103F900004EB81029080012004F82100777001F089
:103FA000BBFC1398FCF77CFDCDE900019DF848307F
:103FB00070A205E0754900202B4675A2CDE90001ED
:103FC000402102A800F0CEFCB7E7FFE713AB12AA2E
:103FD00077A13846FCF7F8F802281DD19DF8480073
:103FE000D0B1042818D8401EC7B21398FCF744FD7E
:103FF00085B2681E63280CD807EB870004EB8000AD
:10400000C580777001F026FC00959DF848306BA2C2
:104010004DE02B466FA272E013AB12AA76A1384690
:10402000FCF7D2F802281CD19DF84800C8B104283A
:1040300017D8401EC7B21398FCF71EFDC5B2642DF9
:104040000CD807EB870004EB80000572777001F055
:10405000A9FB00959DF848306AA228E02B466FA284
:104060004DE013AB12AA76A13846FCF7ADF8022852
:1040700024D19DF8480008B304281FD8401EC7B2B9
:104080001398FCF7F9FC10F0FF0503D0012D01D0C7
:104090006EA222E007EB870004F82050777001F051
:1040A00051FB4DB174A09DF84830009074A240219E
:1040B00002A800F057FC40E776A0F4E712AA77A127
:1040C0003846FCF781F8174C243C01280AD075A12A
:1040D0003846FCF762F8B8B173A2402102A800F09C
:1040E00041FC2AE79DF84800411E622905D8E0718D
:1040F00000F004F9E37971A201E0632374A2402186
:1041000002A800F02FFC18E7E37978A2F7E7000097
:1041100049256868753D2566000000000000C8421A
:10412000DC040020240000205365742049256868C1
:1041300075203D20252E32666D41204F4B0D0A0023
:10414000000010404925686875206F7574206F66FF
:104150002072616E67652028307E252E32666D41A3
:10416000290D0A00E806002056256868753D256679
:1041700000000000536574205625686875203D20B6
:10418000252E326656204F4B0D0A000000001440C9
:104190005625686875206F7574206F662072616E91
:1041A00067652028307E252E326656290D0A0000CC
:1041B00046256868753D256600000000536574203B
:1041C0006625686875203D202564487A204F4B0D90
:1041D0000A00000046726571202564487A206F75D8
:1041E00074206F662072616E67652028317E3130E1
:1041F00030487A290D0A000044256868753D256617
:1042000000000000536574206425686875203D2017
:1042100025642525204F4B0D0A0000004475747954
:104220002025642525206F7574206F662072616ECD
:1042300067652028307E3130302525290D0A0000A1
:104240004D256868753D256600000000496E766161
:104250006C6964206D6F6465202875736520303D3E
:1042600063757272656E742C20313D766F6C74616B
:104270006765290D0A000000566F6C746167650060
:10428000536574204D25686875203D202573204FA7
:104290004B0D0A0043757272656E740049443D25EA
:1042A0006868750049443F00496E76616C69642016
:1042B000636F6D6D616E640D0A00000053657420BC
:1042C0004944203D202564204F4B0D0A000000008A
:1042D0004944206F7574206F662072616E67652097
:1042E00028317E2564290D0A000000004944203D44
:1042F0002025640D0A00000070477047F0B5214E7C
:104300009FB0002006F150070546694600EB800487
:1043100006EB840201EBC003B2F80AC0A3F802C0A6
:10432000B2F80CC0A3F804C0B2F80EC0A3F806C0DF
:10433000128A1A8100EBC00307EB430C002201EB49
:10434000840300BF3CF8124003EB420E521CD2B271
:10435000AEF82240092AF5D30B4A125C03F8342F39
:10436000401CC0B25D700428D0D307482038C07903
:104370008DF872008DF873500846FDF773F81FB082
:10438000F0BD0000DC04002020000020FEB5214E1E
:104390004FF4C870A6F12A056C7936F814108142E2
:1043A00001D926F814001B48103030F81400FCF72F
:1043B0005EFB074636F81400FCF759FB3946FCF75C
:1043C000FFF91549FCF7CAF9FCF756FB074601202F
:1043D0008DF8080024208DF809004FF0FF366100A9
:1043E000022302AA0D48B0310096FDF71FFC0220FF
:1043F0008DF804008DF80570380A8DF806000096D7
:1044000068790323410001AA0448B031FDF70EFC8E
:10441000FEBD00002A00002000FF7F477405002039
:10442000FDF7D2BC30B58FB028216846FBF7A3FE5C
:1044300014210AA8FBF79FFE01210804CDE9001012
:104440000024029402250491CDE907504FF4E010B6
:1044500009906846FDF72CFE08B172B6FEE70F2002
:10446000CDE90A054FF48060CDE90C4002210AA88D
:104470000E94FDF741FD002801D072B6FEE70FB0A3
:1044800030BD70470148FEF722B900001006002039
:10449000F0B50268194B1A4C1A4D4FF080479842FC
:1044A00005D0B84203D0A04201D0A84203D122F0E7
:1044B00070064A683243984205D0B84203D0A04201
:1044C00001D0A84203D122F44074CA6822434C6947
:1044D00022F08002224302608A68C2620A68826215
:1044E000984201D109690163012141610169C9074C
:1044F00003D0016921F001010161F0BD002C0140F0
:10450000000400400008004010B501F01F03012125
:10451000046A99408C430462016A9A401143016223
:1045200010BD10B5846842EA032224F47F440A4394
:104530002243826010BD826822F070020A4342F07A
:10454000070181607047000030B5036A026A22F0FB
:10455000010202624268846924F073050C682C43EE
:1045600023F002058B682B430A4DA8420BD123F0A0
:104570000805CB6822F440722B434D6923F00403F5
:1045800015438A692A434260846149684163036232
:1045900030BD0000002C014030B5026A036A23F0F0
:1045A00010030362436884690D6824F4E64444EA16
:1045B00005248D6822F0200242EA05120B4DA84224
:1045C0000ED1CD6822F0800242EA05124D6923F433
:1045D000406343EA85038D6922F0400243EA850384
:1045E0004360846149688163026230BD002C0140F0
:1045F00030B5036A026A22F4807202624268C469BA
:1046000023F4007324F073050C682C438D6843EA8F
:1046100005230C4DA8420ED1CD6823F4006343EA74
:1046200005234D6922F4405242EA05128D6923F4B4
:10463000806342EA05124260C4614968C163036253
:1046400030BD0000002C014030B5046A026A22F43B
:10465000805202624268C3690D6823F4E64343EA6C
:1046600005238D6824F4005444EA0534064DA8421D
:1046700004D14D6922F4804242EA85124260C3614E
:1046800049680164046230BD002C014010B5036A22
:10469000046A24F001040462846924F0F00444EA0A
:1046A000021423F00A020A438461026210BD10B5AD
:1046B000036A046A24F010040462846923F0A003EE
:1046C00024F4704444EA023243EA01118261016237
:1046D00010BD10B5406A0021C185C184FEF7D3F931
:1046E00010BD01680C3151E8002F22F4907241E8AE
:1046F0000023002BF5D10168143151E8002F22F07E
:10470000010241E80023002BF5D1016B012909D1F9
:1047100001680C3151E8002F22F0100241E800231B
:10472000002BF5D1202180F8421000210163704751
:1047300008B590F84210222901D0022008BD8268F5
:104740004FF480539A4201D1016921B1816A9A42A2
:104750001BD04AB10AE00268816A5268C2F30802BB
:104760000A80816A891C08E0026972B10268526895
:1047700002F07F020A70816A491C8162C18D491E64
:104780000904090CC18503D01BE002685268F1E7F7
:104790000168CA6822F02002CA600168CA6822F46F
:1047A0008072CA6001684A6922F001024A612021D0
:1047B00080F8421000214163026B012A03D0FEF70A
:1047C00019FB002008BD016301680C3151E8002F7E
:1047D00022F0100241E80023002BF5D101680A689D
:1047E000D20602D50A6849680091818DFEF74AF920
:1047F000E7E7000070B5044600680169E26821F44B
:104800004051114301612169A0680843616908436F
:104810002168CA6841F20C639A430243CA60206867
:104820004169A26921F44071114341611E49206828
:10483000884202D1FDF706FC01E0FDF7F3FB00EB37
:10484000C00101EB0012606864218000B2FBF0F34C
:10485000B3FBF1F36FF018067343B2FBF0F5B2FB54
:10486000F0F605EB8305322303EB0515B5FBF1F5F7
:10487000B6FBF1F605F0F00505EB0615B2FBF0F618
:10488000B2FBF0F0B0FBF1F06FF01802504306EB12
:10489000800003EB0010B0FBF1F0216800F00F0086
:1048A0002844886070BD0000003801408162828524
:1048B000C28500214164222180F84210016921B1A2
:1048C0000168CA6842F48072CA6001684A6942F0AD
:1048D00001024A610068C16841F02001C160002006
:1048E00070472DE9F843984617460D460446089E42
:1048F00024E0701C22D0FDF719F8A0EB0800B042AC
:104900001AD8CEB12068C168490717D5802D15D0B7
:10491000402D13D00168C94309070FD40168002551
:10492000406800902046FFF7DCFE0820606484F8B1
:1049300040500120BDE8F8830320FBE720680068B1
:1049400035EA000004D00020B842D2D00020F1E7C0
:104950000120F9E70148FEF797B80000E8060020BB
:10496000FEE700000FB41CB50246002007AC00298A
:104970000BD0491ECDE90021054B6A462146069819
:1049800000F006F9009A002111701CBC5DF814FBC0
:10499000BF5200080FB4084B10B504A902AA03982F
:1049A00000F0F6F8044602A9002000F093FC20462F
:1049B00010BC5DF814FB0000D55200080907090E71
:1049C000002804DB00F1E02080F80014704700F0BC
:1049D0000F0000F1E02080F8141D704702E008C8C5
:1049E000121F08C1002AFAD170477047002001E069
:1049F00001C1121F002AFBD1704700002DE9FF5FA3
:104A000082B00021DDE90430020DDDF840B003433F
:104A100018D044F61050A2F2FF32424315141198F8
:104A200001281FD0A5EB0B00401C5FEA000A4FF0E5
:104A300000064E4FDFF83891B046504615D5CAF102
:104A4000000413E0119801244AA3012801D16FEA60
:104A50000B010298119AC0E90031C0E9024206B088
:104A6000BDE8F09FCBF10000DFE704460021404A9B
:104A7000491842EB0450CDE9001012E0E00707D0DE
:104A800032463B4640464946FBF77FFF8046894613
:104A900032463B4610461946FBF777FF06460F465F
:104AA0006410002CEAD1DDE90401DDE90023BAF14C
:104AB000000F06DAFBF769FF42464B46FBF765FF3E
:104AC00005E0FCF76BF942464B46FCF767F90446F4
:104AD0000E460022284BFBF7F7FF03D84FF0FF30BC
:104AE000014607E00022254B20463146FBF7A6FE93
:104AF000FCF7CFF9102409E0002C0ADB0A2200237E
:104B0000FCF724F8039B30321A55641E50EA010268
:104B1000F2D1641C039AC4F111031444119A012ABE
:104B200003D0012208430DD10AE0084304D000203D
:104B30004FF0110B119072E7A3EB0B056D1E0DE00A
:104B40005B4504DD4FF0000205F1010504E003DAE6
:104B50004FF00002A5F10105002AECD0029811994E
:104B6000C0E90231C0E9004579E7000000001440C7
:104B70000000F03F300000000000F0430000E03F84
:104B800030380A2801D20120704700207047000009
:104B90002DE9FF4F95B09B468946064600250FE25A
:104BA000252877D100242746F84A0121059400E002
:104BB000044316F8013F203B01FA03F01042F7D1FD
:104BC00030782A2811D06FF02F033078A0F130020E
:104BD000092A16D8059A44F0020402EB820203EB7C
:104BE00042021044761C0590EFE759F8042B059219
:104BF000002A03DA504244F40054059044F00204C1
:104C0000761C30782E2816D116F8010F44F00404D3
:104C10002A280DD06FF02F023078A0F13003092B35
:104C200009D807EB870302EB4303C718761CF3E7A9
:104C300059F8047B761C30786C280FD006DC4C28A1
:104C400017D068280DD06A2814D104E0742810D039
:104C50007A280FD10DE044F400140AE044F48014E3
:104C600001E044F440147278824202D104F58014C9
:104C7000761C761C307866280BD013DC582877D049
:104C800009DC002875D04528F6D04628F4D04728FE
:104C90001AD19DE118E0632835D0642879D06528C1
:104CA00012D195E1702873D008DC6728F1D069280B
:104CB0006FD06E280DD06F2806D1B5E073282CD0A8
:104CC000752875D0782874D05A46179990476D1C6E
:104CD00075E1C4F30250022809D003280DD0D9F899
:104CE000001004280DD00D6009F1040967E1D9F81E
:104CF0000010EA17C1E90052F6E7D9F800100D805C
:104D0000F2E70D70F0E719F8041B8DF80010002091
:104D10008DF80100EA46012003E059F804AB4FF09A
:104D2000FF3061074FF0000102D40DE008F10101EE
:104D30008846B9420FDA8045F8DB1AF808100029D6
:104D4000F4D108E008F1010188468142FADB1AF843
:104D500008100029F6D105985B46A0EB080721460C
:104D60003846179A00F094FA284400EB080507E04B
:104D70004DE029E10DE01AF8010B5A4617999047CA
:104D8000B8F10108F7D25B4621463846179A13E17D
:104D900042E00A220092C4F302524FF0000A022AB3
:104DA00008D059F804CB032A4FEAEC710AD00DE081
:104DB00029E02AE009F1070121F00702F2E802C127
:104DC000914609E00FFA8CFC4FEAEC71042A03D1FA
:104DD0004FFA8CFC4FEAEC71002907DA0A460021F1
:104DE000DCF1000C61EB02012D2202E0220504D56A
:104DF0002B228DF80420012203E0E20701D02022BB
:104E0000F7E7904659E00A2102E010220DE0102158
:104E10004FF0000A00910BE010224FF0000A44F01E
:104E200004040827009203E008224FF0000A0092D1
:104E3000C4F30252022A05D059F804CB0021032AF8
:104E400008D009E009F1070121F00702F2E802C1E8
:104E5000914605E01FFA8CFC042A01D10CF0FF0CEE
:104E60004FF00008220728D5702806D0009B83F059
:104E7000100353EA0A0305D00EE040228DF8042007
:104E8000012208E05CEA010206D030228DF80420FD
:104E90008DF8050002229046009B83F0080353EA38
:104EA0000A030AD15CEA010201D1620705D530226A
:104EB0008DF804204FF001087F1E582804D034A03C
:104EC00003900EA802900DE036A0F9E75346604625
:104ED000009AFBF73BFE84460398825C0298401ED2
:104EE000029002705CEA0100F0D1029806A9081A4B
:104EF00000F1200A600702D524F4803400E0012785
:104F0000574502DDA7EB0A0000E0002000EB0A0194
:104F1000009005984144401A0590E00306D45B4692
:104F20002146179A059800F0B3F90544002706E0DA
:104F300001A85A46C05D179990476D1C7F1C4745D4
:104F4000F6DBE0030CD55B462146179A059800F086
:104F50009FF9054404E030205A46179990476D1C8C
:104F60000099481E00900029F5DC08E0029802999B
:104F70005A460078491C0291179990476D1CBAF166
:104F80000001AAF1010AF1DC65E100000928010035
:104F900030313233343536373839616263646566AF
:104FA0000000000030313233343536373839414271
:104FB000434445460000000000F058F90544761CC3
:104FC000307800287FF4ECAD19B02846BDE8F08FAA
:104FD000620700D4062709F1070222F0070CFCE85B
:104FE0000223E14603F000485FEA080C02D00FF20A
:104FF000702C0DE05FEA045C02D50FF2682C07E02C
:105000005FEAC47C02D00FF2602C01E0AFF2700CBA
:105010004FF0FF3823F00043CDF850C065280CD086
:1050200006DC452809D046281DD047283DD13DE063
:10503000662818D067287ED138E00021112F01DBC7
:10504000112000E0781CCDE9000106A90EA8FFF7A9
:10505000D5FCDDE90F010E9A03910021009207F1C2
:10506000010A04914DE04FF000400097CDE9011096
:1050700006A90EA8FFF7C2FCDDE90F0203920E9B02
:1050800011990022DDF80CA00093049211B9791C4B
:1050900000EB010AB7EB0A0004D4C0F1FF3007F1BE
:1050A000010A0490AAEB0700019044E0012F00DA06
:1050B00001270021112F01DD112000E03846CDE944
:1050C000000106A90EA8FFF799FCDDE90F010E9A71
:1050D0000391002104910092BA4621070CD4039950
:1050E000514500DA8A46BAF1010F05DD009AAAF1AE
:1050F0000101515C302908D0B84202DA10F1040FE6
:1051000006DA0121CDE9011015E0AAF10101E9E774
:10511000002805DC049901440491AAEB000102E097
:10512000411C514500DD8A460499401A401C0190FB
:105130004FF000400290200704D40198504501DB55
:10514000CDF8048000208DF84F0002980DF14F0734
:10515000B0F1004F25D02B200E9002984FF002089E
:1051600000280CDA404202902D200E9007E00A2120
:105170000298FBF7D5FC3031029007F8011DB8F119
:105180000001A8F10108F2DC02980028EFD1791E95
:105190000E980870307800F0200040F0450007F8C5
:1051A000020D12A8C01B00F107081498007800B186
:1051B000012000EB0A01019801EBE07105984144E0
:1051C000401A401E0590E00306D45B462146179A1C
:1051D000059800F05DF805441498007818B15A4617
:1051E000179990476D1CE00324D55B462146179A1A
:1051F000059800F04DF805441CE00498002807DBF2
:10520000DDE90301884203DD0098405C179901E065
:10521000179930205A469047049805F10105401C23
:1052200004900198401E019004D12E205A461799EF
:1052300090476D1CBAF10001AAF1010ADDDC05E01E
:1052400017F8010B5A46179990476D1CB8F10001E9
:10525000A8F10108F4DC5B462146179A0598ABE6F5
:105260002D0000002B000000200000002DE9F0417F
:10527000044600251E461746880404D405E0394636
:105280002020B0476D1C641EF9D52846BDE8F0818A
:105290002DE9F041044600251E469046C80301D57D
:1052A000302700E02027880404D505E04146384631
:1052B000B0476D1C641EF9D52846BDE8F0814A68E8
:1052C000002A06D00A68531C0B6010704868401E04
:1052D000486070470A68531C0B60107070470000EC
:1052E00010B5002821D0114B0022001F196803E0DF
:1052F000814203D80A4649680029F9D152B113689E
:10530000841A9C4204D1006818441060104602E0E0
:10531000506000E0186039B102680B1A934203D163
:105320000B681A4402604968416010BD54000020B7
:1053300030B500220C4D114664234FF47A6400BF4F
:1053400002EB8200521C05F8201005EB8000D2B25F
:1053500041808180C380037244818481C181018244
:105360008174042AECD330BDDC040020F0B50021A8
:105370000B4A0C4B0C4E0D4601EBC104002003EB15
:10538000440400BF32F8107024F81070401CC0B202
:105390000928F7D37554491CC9B20429ECD3F0BDD0
:1053A000AA6700082C0500202000002003480021E7
:1053B000017041708170C17001717047240000203C
:1053C000FCF70AFDFFF72EF8FEF774FAFEF706FC6D
:1053D000FEF79CFAFEF71EFBFEF7B8FAFEF766FB37
:1053E000FEF7B0FBFFF7A4FFFEF720FAFFF7DEFFA2
:1053F000FBF748FF4FF4FA70FCF7DEF8FEF71CFCF1
:105400002A48FDF7C9F800212948FDF7EBFA0421E5
:105410002648FDF7E7FA00212648FDF7E3FA0021C8
:105420002548FDF7DFFA254D00246C7000F012FAD4
:1054300000F0B8F9641CE4B2042CF6D31F4C00262B
:10544000243C6E701E48A179012201441D48FDF7DD
:10545000C3FC00BFFEF7F0FCFEF7DEFBFCF766FACC
:10546000E169401A642810D3FCF760FAE061207A01
:1054700010B100F09FFA06E0A87810B100F026FB0A
:1054800001E000F0DFFCFDF79FFEFDF79DFE2079B7
:1054900020B126710A484038FEF710FDE078012857
:1054A000D8D1FEF773FFE670D4E7000010060020A5
:1054B000C805002058060020A00600202400002077
:1054C0009C040020E8060020F0B50B30154D20F0BC
:1054D00007010024144A0FE003688B420BD38B4270
:1054E00005D95E1A43184768C3E9006700E04368BE
:1054F000136002C004E0021D10680028ECD12046B1
:10550000002802D1286808B10020F0BD064A0748EB
:105510001060074A121A22F00702C0E90024012095
:105520002860D7E7580000205400002054070020CE
:10553000500900201CB509281FD2104931F810006D
:10554000FBF795FA0E49FBF73BF90E49FBF706F915
:10555000FBF792FA02218DF804108DF80500000A7D
:105560008DF80600C81E00900748032301AA407862
:1055700041000648B031FCF759FB1CBDAA67000882
:105580000000C84300FF7F4724000020740500206E
:105590002DE9FC5F5748DFF864A14778564807EBD0
:1055A000870100EB810453486688001FC05D002816
:1055B0007FD00024504907EBC7025031204601EB51
:1055C000420500BF35F81030B34206D805EB400362
:1055D0005B88B34201D304460FE0072809D12B8A28
:1055E000B34201D2072404E031F81230B34200D9AB
:1055F0000024401CC0B20828E4D3DFF8048138F846
:105600001400FBF734FA814608EB44004088FBF7AE
:105610002EFA834635F81400FBF729FA804605EB8D
:1056200044004088FBF723FA04464146FBF764FA3E
:1056300019D041462046FBF78BF8054649465846A7
:10564000FBF786F804463046FBF711FA4146FBF7B4
:105650007FF82146FBF782F82946FBF7B1F8494667
:10566000FBF724F800E04846264910F1FF4F01D32C
:10567000002002E0884200DD0846FBF7A1F8514611
:10568000FBF76CF8FBF7F8F9022180B28DF80410F3
:105690008DF80500000A8DF80600C81E79000090FC
:1056A000032301AA1848B031FCF7C0FABDE8FC9FFB
:1056B000FFE73046FBF7DBF906466089FBF7D7F9D1
:1056C000124D2946FBF77CF88046E089FBF7CFF9BD
:1056D0002946FBF775F80546014634463046FBF788
:1056E00015FA04D829462046FBF732F800E00020DE
:1056F0004146C2E724000020DC04002000FF7F4771
:10570000AA6700080000C84374050020000020417B
:105710001CB502208DF80400FF208DF805008DF8DF
:1057200006004FF0FF3000900448032301AA4078A0
:1057300041000348B031FCF779FA1CBD2400002079
:105740007405002038B51448144A0123417801EB50
:105750008100490012F820400F489A1E1838B031D5
:1057600003705CB11C2343700092024602230C4874
:10577000FCF75CFABDE8384000F0CEB82423437053
:105780000092054A0223183A0548FCF74FFABDE893
:105790003840FFF7FDBE000024000020DC0400209C
:1057A000740500202DE9F04123484578032D38D8B1
:1057B000224905EB850001EB8000007AFBF757F9E1
:1057C0001F49044610F1FF4F01D3002402E08C4230
:1057D00000DD0C463DB1012D07D0022D08D0032D70
:1057E0001FD1184D05E0184D03E0184D042601E0C7
:1057F000174D00260F46E868BC420ADAFBF737F976
:105800002146FAF7ABFF3946FAF7DAFFFBF734F92E
:1058100000E0401C3EB1042E08D02968082E08D0B4
:105820000864BDE8F08129684863FAE7296888635D
:10583000F7E7C863F5E7000024000020DC0400203F
:105840000000C842A0060020C80500201006002065
:10585000580600202DE9F04128484678032E3BD811
:10586000274806EB860100EB8104207AFBF7FFF85E
:10587000E288244910F1FF4F01D3002002E0884262
:1058800000DD084652B3642A00D9642242F2107344
:10589000B3FBF2F441F61F45641EFAF791FF074689
:1058A000601CFBF7E4F83946FAF758FFFBF7E4F819
:1058B00001460122A6B1012E14D0022E1CD0032EC7
:1058C0000AD11148456003689D620368DC62C460C8
:1058D0000368596300684261BDE8F0810122D5E7A1
:1058E0000A48EFE70A48456003689D620368DC6286
:1058F000C46003689963EDE70648E3E724000020ED
:10590000DC0400200000C842A0060020C8050020DA
:1059100010060020580600202DE9FC41204C60783C
:1059200000EB80011F4800EB8105A888FBF79FF87A
:105930000746A889FBF79BF81B4E3146FAF740FF54
:105940008046288AFBF793F83146FAF739FF064676
:1059500001463D463846FBF7D9F804D8314628467B
:10596000FAF7F6FE00E000204146FAF729FF0F495A
:10597000FAF7F4FEFBF780F802218DF804108DF899
:105980000500000A8DF80600C81E00906078032309
:10599000410001AA0648B031FCF748F9BDE8FC8196
:1059A00024000020DC0400200000204100FF7F478D
:1059B0007405002030B58DB0FEF72EF92B482CA1D0
:1059C00042786846521CFEF7E5FF06236A4600212E
:1059D0000120FEF71BFA254C0923243C29A1627AF9
:1059E0006846521CFEF7D6FF06236A460C210120AA
:1059F000FEF70CFA2648617A30F81100FBF737F809
:105A0000244D2946FAF7DCFEFBF74AF802460B461E
:105A100021A16846FEF7BEFF06236A461821012031
:105A2000FEF7F4F96089FBF722F82946FAF7C8FE79
:105A3000FBF736F802460B461BA16846FEF7AAFFA5
:105A400006236A4624210120FEF7E0F908233222CA
:105A500024212B20FEF740F9062317A23221012032
:105A6000FEF7D4F9FEF7E8F90DB030BD24000020B0
:105A7000436825642043616C6962726174696F6E6A
:105A800000000000506F696E742025642F256400AB
:105A9000AA6700080000C8425461726765743A2022
:105AA000252E32666D41000041637475616C3A20A9
:105AB000252E32666D4100004B312B4B323A41644A
:105AC0006A204B333A4E6578740000002DE9F041AE
:105AD00090B0FEF7A1F8B14EB1A102A875786A1C8A
